:100000000C9456000C9473000C9473000C947300C1
:100010000C9473000C9473000C9473000C94730094
:100020000C9473000C9473000C9473000C94730084
:100030000C9473000C9473000C9473000C94730074
:100040000C9473000C9473000C9473000C94730064
:100050000C9473000C9473000C9473000C94730054
:100060000C9473000C9473000C9473000C94730044
:100070000C9473000C9473000C9473000C94730034
:100080000C9473000C9473000C9473000C94730024
:100090000C9473000C9473000C9473000C94730014
:1000A0000C9473000C9473000C94730011241FBE05
:1000B000CFEFDAE0DEBFCDBF11E0A0E0B1E0E6EACD
:1000C000F4E002C005900D92A030B107D9F711E01D
:1000D000A0E0B1E001C01D92A030B107E1F70E949D
:1000E0006C010C9451020C94000088E090E0909315
:1000F000CD008093CC001092C80088E08093C900A6
:1001000086E08093CA0008952C9881B3836081BBF8
:10011000089580E680937C0087E880937A0080ECE5
:1001200080937E0087E080937D000895ECE7F0E007
:100130009081907E9083EBE7F0E090819F7D9083AB
:10014000883030F4ECE7F0E09081892B80830BC09D
:10015000ECE7F0E090818850892B8083EBE7F0E0BA
:10016000808180628083EAE7F0E080818064808320
:10017000808184FFFDCF809179000895FF920F93D5
:100180001F93CF93DF93F82E00E110E0C0E0D0E0A2
:100190008F2D0E949600C80FD11D01501040C1F74D
:1001A000CE01929582958F7089279F708927DF9164
:1001B000CF911F910F91FF900895E8ECF0E020811E
:1001C00025FFFDCF24E52093CE00E8ECF0E0208170
:1001D00025FFFDCF26E52093CE00E8ECF0E020815E
:1001E00025FFFDCF6093CE00E8ECF0E0208125FFF5
:1001F000FDCF7093CE00E8ECF0E0208125FFFDCF2D
:100200008093CE00E8ECF0E0808185FFFDCF9093F5
:10021000CE008FE19EE40197F1F700C00000089541
:100220008F929F92AF92BF92CF92DF92EF92FF9206
:10023000CF93DF93CC24DD247601882499245401C4
:100240000F2EFEEF9F2EF02DC4E1D0E0C501B401CA
:100250000E94DD00C701B6010E94DD002197B1F7C1
:1002600099240F2EFEEFAF2EF02DC4E1D0E0C50192
:10027000B4010E94DD00C701B6010E94DD00219794
:10028000B1F79924689491F8AA24C4E1D0E0C5019B
:10029000B4010E94DD00C701B6010E94DD00219774
:1002A000B1F79924AA246894A1F8C4E1D0E0C5016B
:1002B000B4010E94DD00C701B6010E94DD00219754
:1002C000B1F7DF91CF91FF90EF90DF90CF90BF908B
:1002D000AF909F908F900895CF93DF93CDB7DEB707
:1002E0002A970FB6F894DEBF0FBECDBF882499249D
:1002F00054010E9475000E9489000E9484008FEFC3
:1003000093EDA0E381509040A040E1F700C00000D1
:1003100087E00E94BE00082F86E00E94BE00282EC3
:100320000E94100110E0D8011297BA83A9830F2E02
:10033000F0E56F2E7724F02DF8013296FE83ED83E1
:1003400033249101225030403A872987C101029617
:1003500098878F83552453943C822B821901FF2464
:1003600087E00E94960090E0A981BA818A179B07D6
:100370002CF0ED81FE81E817F9070CF5A801481B68
:10038000590B801B910B1AF4909581959F4F9C01FE
:10039000220F331F820F931F99230CF4019695951A
:1003A00087959C012B5D3F4F429FC001439F900D5D
:1003B000529F900D1124B3010E942A0201C060E0F7
:1003C000D62E86E00E94960090E0821593052CF0D0
:1003D0002F8138852817390714F54B815C81481B1C
:1003E000590BCA0122F488279927841B950B9C017D
:1003F000220F331F820F931F99230CF401969595BA
:1004000087959C012B5D3F4F429FC001439F900DFC
:10041000529F900D1124B3010E942A0201C060E096
:10042000E62E8AE00E949600452C843608F044248B
:1004300089E00E949600843610F432E0432AC42CEE
:10044000C701B6010E94DD00842CC501B4010E94E1
:10045000DD0085CF97FB092E07260AD077FD04D053
:100460000CD006D000201AF4709561957F4F089546
:10047000F6F7909581959F4F0895AA1BBB1B51E1FC
:1004800007C0AA1FBB1FA617B70710F0A61BB70B04
:10049000881F991F5A95A9F780959095BC01CD01A9
:0604A0000895F894FFCF5F
:00000001FF
